:100000000C945D000C9485000C9485000C94850084
:100010000C9485000C9485000C9485000C9485004C
:100020000C9485000C9448030C9485000C94850076
:100030000C9485000C9485000C9485000C9485002C
:100040000C94FE020C9485000C94CC020C94A60235
:100050000C9485000C9485000C9485000C9485000C
:100060000C9485000C9485000000000024002700FB
:100070002A0000000000250028002B0004040404CE
:100080000404040402020202020203030303030342
:10009000010204081020408001020408102001021F
:1000A00004081020000000080002010000030407FB
:1000B0000000000000000000910411241FBECFEFDB
:1000C000D8E0DEBFCDBF11E0A0E0B1E0ECE8F9E0A0
:1000D00002C005900D92AC33B107D9F721E0ACE333
:1000E000B1E001C01D92AF3EB207E1F710E0CDE5EF
:1000F000D0E004C02197FE010E94BE04CC35D10798
:10010000C9F70E94BA030C94C4040C940000AF9287
:10011000BF92CF92DF92EF92FF920F931F93CF93F4
:10012000DF936C017B018B01040F151FEB015E0156
:10013000AE18BF08C017D10759F06991D601ED91EB
:10014000FC910190F081E02DC6010995892B79F78A
:10015000C501DF91CF911F910F91FF90EF90DF903C
:10016000CF90BF90AF900895FC01538D448D252F03
:1001700030E0842F90E0821B930B541710F0CF9641
:10018000089501970895FC01918D828D981761F073
:10019000A28DAE0FBF2FB11D5D968C91928D9F5F8A
:1001A0009F73928F90E008958FEF9FEF0895FC0169
:1001B000918D828D981731F0828DE80FF11D858D1C
:1001C00090E008958FEF9FEF0895FC01918D228DAF
:1001D000892F90E0805C9F4F821B91098F73992734
:1001E000089582E591E00E94E50021E0892B09F461
:1001F00020E0822F089580E090E0892B29F00E9472
:10020000F10081110C9400000895FC01A48DA80F49
:10021000B92FB11DA35ABF4F2C91848D90E0019648
:100220008F739927848FA689B7892C93A089B18968
:100230008C91837080648C93938D848D981306C009
:100240000288F389E02D80818F7D80830895EF926D
:10025000FF920F931F93CF93DF93EC0181E0888F80
:100260009B8D8C8D98131AC0E889F989808185FF50
:1002700015C09FB7F894EE89FF896083E889F989F2
:1002800080818370806480839FBF81E090E0DF91F4
:10029000CF911F910F91FF90EF900895F62E0B8D47
:1002A00010E00F5F1F4F0F731127E02E8C8D8E1102
:1002B0000CC00FB607FCFACFE889F989808185FF69
:1002C000F5CFCE010E940501F1CFEB8DEC0FFD2F94
:1002D000F11DE35AFF4FF0829FB7F8940B8FEA8924
:1002E000FB8980818062CFCFCF93DF93EC01888D33
:1002F0008823B9F0AA89BB89E889F9898C9185FDA1
:1003000003C0808186FD0DC00FB607FCF7CF8C912E
:1003100085FFF2CF808185FFEDCFCE010E940501E0
:10032000E9CFDF91CF91089590E0FC01EC55FF4FAC
:100330002491FC01E057FF4F3491FC01E458FF4F3A
:10034000E491EE23C9F0222339F0233001F1A8F41F
:10035000213019F1223029F1F0E0EE0FFF1FEE58A5
:10036000FF4FA591B4918FB7F894EC91611126C01D
:1003700030953E233C938FBF08952730A9F0283055
:10038000C9F0243049F7809180008F7D03C08091AF
:1003900080008F7780938000DFCF84B58F7784BD16
:1003A000DBCF84B58F7DFBCF8091B0008F778093BA
:1003B000B000D2CF8091B0008F7DF9CF3E2BDACF45
:1003C0003FB7F8948091410190914201A09143017F
:1003D000B091440126B5A89B05C02F3F19F00196A6
:1003E000A11DB11D3FBFBA2FA92F982F8827BC018F
:1003F000CD01620F711D811D911D42E0660F771FB7
:10040000881F991F4A95D1F70895CF93DF93FC0178
:1004100001900020E9F73197AF01481B590BBC014F
:1004200082E591E00E948700EC0142E050E062E149
:1004300071E082E591E00E9487008C0F9D1FDF91A3
:10044000CF9108958F929F92AF92BF92CF92DF92F9
:10045000EF92FF920F931F93CF93DF9385E191E08B
:100460000E94050207E910E0F8012491C3E8D0E0FA
:10047000FE018491882399F090E0880F991FFC0178
:10048000E859FF4FA591B491FC01EE58FF4F8591BB
:1004900094918FB7F8949C91292B2C938FBF60E097
:1004A00087E00E9494010E94E0014B015C0194E608
:1004B000C92ED12CE12CF12C0E94E0016819790998
:1004C0008A099B09683E734081059105A8F3F1E014
:1004D000CF1AD108E108F10828EE820E23E0921E1F
:1004E000A11CB11CC114D104E104F10429F761E09D
:1004F00087E00E949401F8010491FE01C491CC238D
:10050000C1F0D0E0CC0FDD1FFE01E859FF4F25916F
:100510003491FE01EE58FF4FA591B4919FB7F89426
:10052000F90180810095802380838C9108230C93AE
:100530009FBFDF91CF911F910F91FF90EF90DF90C0
:10054000CF90BF90AF909F908F9008951F920F9281
:100550000FB60F9211242F933F934F935F936F9396
:100560007F938F939F93AF93BF93EF93FF9382E516
:1005700091E00E940501FF91EF91BF91AF919F9192
:100580008F917F916F915F914F913F912F910F903C
:100590000FBE0F901F9018951F920F920FB60F92DB
:1005A00011242F938F939F93EF93FF93E091620118
:1005B000F09163018081E0916801F091690182FD11
:1005C0001BC0908180916B018F5F8F7320916C01B4
:1005D000821741F0E0916B01F0E0EE5AFE4F958FEB
:1005E00080936B01FF91EF919F918F912F910F90CD
:1005F0000FBE0F901F9018958081F4CF1F920F921D
:100600000FB60F9211242F933F938F939F93AF9325
:10061000BF9380913D0190913E01A0913F01B09127
:10062000400130913C0123E0230F2D3758F501960E
:10063000A11DB11D20933C0180933D0190933E018B
:10064000A0933F01B09340018091410190914201FC
:10065000A0914301B09144010196A11DB11D809369
:10066000410190934201A0934301B0934401BF9193
:10067000AF919F918F913F912F910F900FBE0F904F
:100680001F90189526E8230F0296A11DB11DD2CF09
:100690001F920F920FB60F9211242F933F934F93F7
:1006A0005F936F937F938F939F93AF93BF93EF93DA
:1006B000FF9380914B0190914C018093B200809107
:1006C0004E0190914F01A0915001B09151010196BE
:1006D000A11DB11D80934E0190934F01A093500135
:1006E000B093510180914E0190914F01A091500122
:1006F000B0915101409147015091480160914901E9
:1007000070914A0184179507A607B70710F18091E9
:100710004D0181111EC081E080934D0180914E01F9
:1007200090914F01A0915001B0915101841B950B04
:10073000A60BB70B80934E0190934F01A0935001ED
:10074000B0935101E0914501F09146010995109255
:100750004D01FF91EF91BF91AF919F918F917F914B
:100760006F915F914F913F912F910F900FBE0F901E
:100770001F901895789484B5826084BD84B581609B
:1007800084BD85B5826085BD85B5816085BD80915C
:100790006E00816080936E001092810080918100D4
:1007A00082608093810080918100816080938100CC
:1007B000809180008160809380008091B10084608E
:1007C0008093B1008091B00081608093B0008091EF
:1007D0007A00846080937A0080917A0082608093AE
:1007E0007A0080917A00816080937A0080917A000B
:1007F000806880937A001092C100E0916201F091CC
:10080000630182E08083E0915E01F0915F011082DC
:10081000E0916001F09161018FEC808310926A0198
:10082000E0916601F091670186E08083E0916401C8
:10083000F0916501808180618083E0916401F09195
:100840006501808188608083E0916401F091650199
:10085000808180688083E0916401F09165018081EE
:100860008F7D808385E291E00E94050280EA9FE00F
:10087000A0E0B0E08093470190934801A093490124
:10088000B0934A0182E292E0909346018093450141
:10089000809170008E7F809370008091B0008C7F7B
:1008A0008093B0008091B100877F8093B1008091E8
:1008B000B6008F7D8093B600809170008D7F80930D
:1008C00070008091B10084608093B1008091B1008C
:1008D0008C7F8093B10086E090E090934C018093F0
:1008E0004B0110924E0110924F0110925001109244
:1008F000510110924D0180914B0190914C018093D8
:10090000B20080917000816080937000C0E0D0E000
:100910002097F1F30E94F1008823D1F30E94000098
:10092000F7CFE2E5F1E01382128288EE93E0A0E0D7
:10093000B0E084839583A683B78384E091E09183BC
:10094000808385EC90E09587848784EC90E097879E
:10095000868780EC90E0918B808B81EC90E0938B8C
:10096000828B82EC90E0958B848B86EC90E0978B69
:10097000868B118E128E138E148E0895EE0FFF1F2C
:0C0980000590F491E02D0994F894FFCF4D
:10098C000000000027018700B4007401E500C300DB
:10099C00D7000D0A0048656172746265617420733A
:1009AC00656E7421002A2A2A2041726475696E6F63
:0C09BC00207265736574202A2A2A00004E
:00000001FF
